:0400000080317D28A6
:100008007E1480312000911C0A280B281A28911090
:100018000130BC003C08CE071A304E06031D1528D7
:1000280016281A28CE0182310F22803120000D1E99
:100038001E281F2836288D1E2228232836280230FD
:100048002000BD000430BC00BA30890B2928BC0B45
:100058002928BD0B29280000270096121612853181
:100068008E2580312700161F3A283B284E288331D9
:10007800EB23803104302000BD000C30BC0033304D
:10008800890B4428BC0B4428BD0B442800322700A8
:1000980016137B28961E512852286528843151242E
:1000A800803104302000BD000C30BC003330890B97
:1000B8005B28BC0B5B28BD0B5B280032270096121F
:1000C8007B28161E682869287B2884317F24803184
:1000D80004302000BD000C30BC003330890B72287E
:1000E800BC0B7228BD0B72280032270016127E1036
:1000F800090080317F2886311C268031CF00863167
:100108001D268031D00086311E268031D100C301E2
:10011800C401C501C601C701C801C901CA01CB0193
:10012800CC01CD01CE017E1020008431F92C2000B5
:100138002C08FD002B08FC002A08FB002908FA00FF
:100148008531BA2580312000AE002E08B3002C0876
:10015800A3002B08A2002A08A1002908A0008431C6
:100168001F2480312000AE002E08B4002C08A30004
:100178002B08A2002A08A1002908A0008331B62371
:1001880080312000AE002E08B500003085311E25D4
:100198008031200035088231EE22803120002D0880
:1001A800031DD728D828DD282030AF000030B00044
:1001B800E1283A30AF000030B0002F08863116260B
:1001C8008031200034088231EE22803120002D0851
:1001D800031DEF28F028F5282030B1000030B200C8
:1001E800F9283A30B1000030B200310886311626BD
:1001F8008031200033088231EE2280310800F60178
:10020800F11F072908290F29F009F109F00A031934
:10021800F10AF601F60AF31F122913291C29F2091B
:10022800F309F20A0319F30A0130F4007408F60618
:10023800F701F801700871040319232924295329A7
:10024800F501F50A30290130F035F10D890B28291F
:100258000130F4007408F507F11F332934292729E0
:100268000130F735F80D890B352971087302031D24
:100278003F2970087202031C422943294829700843
:10028800F2027108F33B77140130F136F00C890B58
:1002980049290130F502031D5229532934297608CA
:1002A8000319572958295D29F709F809F70A031985
:1002B800F80A7808F1007708F00008000030FC0020
:1002C8000030FB000030FA000030F90073087204B7
:1002D80071047004031971297229B329FD01FD0AFB
:1002E80080290130F035F10DF20DF30D890B7629D7
:1002F8000130F8007808FD07F31F83298429752940
:100308000130F935FA0DFB0DFC0D890B85297308B1
:100318007702031D992972087602031D992971082D
:100328007502031D992970087402031C9C299D29D4
:10033800A6297008F4027108F53B7208F63B7308A9
:10034800F73B79140130F336F20CF10CF00C890B01
:10035800A7290130FD02031DB229B32984297C088D
:10036800F3007B08F2007A08F1007908F000080031
:10037800F601F31FC029C129C829F209F309F20AB5
:100388000319F30AF601F60AF11FCB29CC29D12962
:10039800F009F109F00A0319F10A70087104031948
:1003A800D629D729002AF501F50AE3290130F035C5
:1003B800F10D890BDB290130F4007408F507F11FF2
:1003C800E629E729DA2971087302031DED29700867
:1003D8007202031CF029F129F5297008F20271084C
:1003E800F33B0130F136F00C890BF6290130F502A8
:1003F800031DFF29002AE72976080319042A052A7C
:100408000A2AF209F309F20A0319F30A7308F10038
:100418007208F000080001302000B8003808CD0745
:1004280002304C06031D192A1A2A482A4A08490488
:1004380048044704031D212A222A2B2A0130C30716
:100448000030C43D0030C53D0030C63D3B2A013078
:10045800B8000030B9000030BA000030BB003808DE
:10046800C3023908C43B3A08C53B3B08C63B4608AB
:10047800450444044304031D422A432A482A0330FE
:10048800B8003808CC00CD0103304C06031D4D2AB6
:100498004E2A562A4D1C512A542A22000E15562A35
:1004A80022000E1183313523823108002000C0005C
:1004B80040080139BE00BE0EBE0D22000E08200005
:1004C8003E06DF393E0622008E0020004036013904
:1004D800BE00BE0E22000E0820003E06EF393E0682
:1004E80022008E0020004008BE000230BE36890B74
:1004F8007A2A3E080139BF00BF0DBF0DBF0D22008B
:100508000E0820003F06F7393F0622008E00200023
:100518004008BE000330BE36890B8F2A3E080139D9
:10052800BF00BF0EBF0DBF0D22000E0820003F0602
:10053800BF393F0622008E008531DF258231080051
:1005480073087204710470040319AB2AAC2AE52AF3
:10055800F901F90ABA2A0130F035F10DF20DF30D5F
:10056800890BB02A0130F8007808F907F31FBD2A73
:10057800BE2AAF2A73087702031DCC2A72087602B6
:10058800031DCC2A71087502031DCC2A7008740259
:10059800031CCF2AD02AD82A7008F4027108F53B28
:1005A8007208F63B7308F73B0130F336F20CF10C96
:1005B800F00C890BD92A0130F902031DE42AE52A37
:1005C800BE2A7708F3007608F2007508F10074086F
:1005D800F00008002000A7004F08A3005008A4005E
:1005E8005108A5000A30F0000030F1002708A000EB
:1005F800A1012008F2002108F3008131BC218231D9
:1006080070082000A2002208A6000A30F00000307E
:10061800F1002708A000A1012008F2002108F3003A
:1006280081310321823170082000A2002208A8002D
:100638000A302802031C212B222B262B0930A0006C
:100648002008A8002808303EA0002008A30026089B
:10065800303EA0002008A400233085313E25823199
:100668000800632B4A08AC004908AB004808AA00F8
:100678004708A900AD01AD0A80319B2083317A2B50
:100688004608AC004508AB004408AA004308A90086
:100698004D080139B6003608AD0080319B20833102
:1006A8007A2B4608AC004508AB004408AA0043086A
:1006B800A900AD01AD0A80319B2083317A2B20003F
:1006C8004C08B600B7013708003A03196C2B7A2B8F
:1006D8003608003A0319362B013A0319442B033A1A
:1006E8000319552B013A0319442B7A2B0800F20001
:1006F80072080139F000F00EF00D22000E087006A5
:10070800DF3970068E0072360139F000F00E0E08DF
:100718007006EF3970068E007208F0000230F0366D
:10072800890B932B70080139F100F10DF10DF10DD2
:100738000E087106F73971068E007208F000033052
:10074800F036890BA42B70080139F100F10EF10D78
:10075800F10D0E087106BF3971068E008531EE2540
:10076800833108000030F3000030F2000E30F10051
:100778001030F00020002308F7002208F6002108B6
:10078800F5002008F40081316221833173082000CC
:10079800A3007208A2007108A1007008A000230835
:1007A800031DDF2B2208031DDF2B01302102031C50
:1007B800DE2BDF2BE82B00302000A3000030A20046
:1007C8000030A100FF30A000200020080800032C02
:1007D8000230B8003808CC004A08C6004908C500ED
:1007E8004808C4004708C3001A2C0230B80038086B
:1007F800CC001A2CCC01CC0A1A2CCC011A2C2000C3
:100808004C08B800B9013908003A03190C2C1A2C05
:100818003808003A0319EC2B013A0319F92B033A6B
:100828000319FE2B013A0319012C1A2CCD0183312F
:100838003523833108000030F3000030F200003027
:10084800F1003C30F00020002308F7002208F600F1
:100858002108F5002008F4008131622184317308F1
:100868002000A3007208A2007108A1007008A0006F
:100878000030F3000030F2000030F1003C30F000AE
:100888002308F7002208F6002108F5002008F400E4
:100898008231A42284317008080020004C08031D0E
:1008A800562C572C602C0130C7070030C83D00304B
:1008B800C93D0030CA3D7B2C02304C060319652C1B
:1008C800662C6B2C4C03031D6A2C6B2C7B2C4A0862
:1008D8004904480447040319722C732C7B2C0130FB
:1008E800C3070030C43D0030C53D0030C63D8331EC
:1008F80035238431080020004C08031D842C852CE6
:100908008E2C3C30C7070030C83D0030C93D003050
:10091800CA3DA92C02304C060319932C942C992C0F
:100928004C03031D982C992CA92C4A084904480407
:1009380047040319A02CA12CA92C3C30C307003074
:10094800C43D0030C53D0030C63D83313523843178
:10095800080086310726843102302100A4000430C3
:10096800A300BA30890BB62CA30BB62CA40BB62C5B
:10097800000022008E138D138431D3248431283053
:100988008531FD2584310C308531FD258431853153
:10099800CF25843106308531FD25843108000330A8
:1009A80082315A2284311A302000C100F830890B74
:1009B800DB2CC10BDB2C0000033082315A2284313E
:1009C8001A302000C100F830890BE82CC10BE82C44
:1009D8000000033082315A228431C830890BF22C4E
:1009E800023082315A22843108007830210099007F
:1009F8008431AD24843121000E1122000E1127000C
:100A080014169416141723000D128D128B15FA3034
:100A180020009B001C08873948389C0003309C0440
:100A28001C15210091140B178B17200091141B2DF6
:100A380080317D28F80011307802031C242D252DE3
:100A4800292D0F30F7007708F8007808F7007708A5
:100A58002000CB0008307802031C332D342D382DAC
:100A68003830F7007708F8077808803886310F267D
:100A780085310800FD00FC014F2D7C087D07FB0037
:100A88007B0886008701010885317625853101308C
:100A9800FB007B08FC077C087D07FB007B088600C1
:100AA80087010108031D592D5A2D412D08002100E9
:100AB800A0002000410C2200031C8E1303188E177F
:100AC800210020082000C2000430C236890B692D9D
:100AD800420882315A2285312100200882315A2267
:100AE80085310800FA00083020004B06031D7D2DD3
:100AF8007E2D822D4B0885311E258531F301F30AA1
:100B08007A088531A42585310130F900790820005B
:100B1800CB07080000302000CA000030C9000030B0
:100B2800C8000030C7000030C6000030C5000030E3
:100B3800C4000030C300CC0183313523853108005F
:100B4800F500730C2200031C8E1303188E1775080A
:100B5800F4000430F436890BAE2D740883317B23FE
:100B68008531750883317B23853108000030F30017
:100B78000030F2000030F1003C30F0007D08F70052
:100B88007C08F6007B08F5007A08F4008231A4227C
:100B980085317008080001308531FD2585310B301D
:100BA8002100A2006230890BD72DA20BD72D00009F
:100BB8002000CB01080022008D13003200322200F1
:100BC8008D170032003222008D138530890BEA2DF3
:100BD8000000080022008D130032003222008D1719
:100BE8000032003222008D138530890BF92D000068
:100BF80008002100A1002000C10121002108853141
:100C08005B258531080021008D138E138E120E127C
:100C18008E110E130800F600F30176088531A4251D
:100C280086310800FB007B0885317625863108006F
:060C3800203420340034DA
:020000040001F9
:04000E00A40FFF1824
:00000001FF
